:100000000C9446000C9465000C9465000C946500FB
:100010000C9465000C9467000C9496000C94650099
:100020000C9465000C9465000C9465000C946500BC
:100030000C9465000C9465000C9465000C946500AC
:100040000C94250D0C9465000C9465000C946500CF
:100050000C9465000C9465000C9465000C9465008C
:100060000C9465000C9465000C9465000C9465007C
:100070000C9465000C9465000C9465000C9465006C
:100080000C9465000C9465000C94650011241FBE4F
:10009000CFEFD0E1DEBFCDBF12E0A0E0B1E0E2E9FA
:1000A000FBE100E00BBF02C007900D92AC30B1073E
:1000B000D9F717E0ACE0B2E001C01D92A532B1075C
:1000C000E1F70E94F2020C94C70D0C9400001F92FD
:1000D0000F920FB60F9211248F939F9380910D0270
:1000E000882379F090910D029130E9F080E49CE949
:1000F0000197F1F79F918F910F900FBE0F901F9076
:10010000189591E090930D0210920C0215BA88E0B8
:100110008093650084E08093650082E080936500B1
:1001200090936500E3CF10920D02F0CF1F920F92D3
:100130000FB60F9211248F939F9380910C02882306
:1001400079F090910C029130E9F080E49CE90197FC
:10015000F1F79F918F910F900FBE0F901F90189500
:1001600091E090930C0210920D0215BA88E08093F2
:10017000650084E08093650082E080936500909341
:100180006500E3CF10920C02F0CF15BAE5E6F0E07F
:1001900088E0808384E0808382E0808381E08083C4
:1001A000089583E082BB80B58B7F80BD1092710083
:1001B00080E28093700084E4809374000895F89442
:1001C00084EA809374008091740087FFFCCF89E9F2
:1001D0008093730084E8809374008091740087FF9B
:1001E000FCCF84EC809374008091740087FFFCCF77
:1001F0009091730084E8809374008091740087FF6D
:10020000FCCF80917300392F20E090E0282B392B10
:1002100084E980937400232F330F330B213231058F
:1002200034F487B78F7B87BF7894C901089587B767
:10023000806487BF7894C901089581E0809361004C
:1002400017B887E886B90895369A349BFECF24B153
:1002500045B1942F80E030E0282B392BC901089557
:10026000CF92DF92EF92FF920F931F93DF93CF9382
:100270000F92CDB7DEB77E010894E11CF11C23E09C
:10028000C22E92E0D92E0FC0D09217028091120296
:10029000909113020E94ED0780E060E041E020E0D1
:1002A00030E00E946B0680910D028823B1F38091AB
:1002B000190290911A0260E070E0A7010E9498086C
:1002C0008C01809112029091130260E070E0A7010E
:1002D0000E940C0803301105B8F2C0921702D6CF65
:1002E0002F923F924F925F926F927F928F929F9246
:1002F000AF92BF92CF92DF92EF92FF920F931F9334
:10030000CF93DF938FEF84BB8FE0809364003FE354
:10031000D32E24E0E22E00EA1FE091E7C92E82E00E
:10032000F82E88248394B9E35B2EA8E0BA2EF8E374
:100330009F2EEDE66E2E73E7772E69E7A62E57E324
:10034000452E46E7342E37E7232E809112029091F6
:10035000130260E070E040E050E00E940C088091E1
:100360001702C82FD0E080911202909113020E94D0
:10037000ED0780910C028823B9F480910D02882347
:1003800099F4D5BAE0926500C8010197F1F7C5BAB2
:10039000F0926500C8010197F1F7C5BA8092650037
:1003A000C8010197F1F7D1CF20910C02213021F142
:1003B00020910D02213049F6C230D10509F472C0F6
:1003C000239709F0C2CF55BAB0926500C8010197D2
:1003D000F1F795BAE0926500C8010197F1F7D5BA37
:1003E000F0926500C8010197F1F765BA20936500A6
:1003F000C8010197F1F7A9CFC130D10501F1C4308F
:10040000D10509F435C0259709F09FCF55BAB092B0
:100410006500C8010197F1F7D5BAE0926500C801FF
:100420000197F1F7D5BAF0926500C8010197F1F78D
:1004300095BA20936500C8010197F1F786CF65BA98
:10044000B0926500C8010197F1F795BAE092650096
:10045000C8010197F1F7A5BAF0926500C8010197AC
:10046000F1F775BA20936500C8010197F1F76DCFD8
:1004700035BAB0926500C8010197F1F7A5BAE092CC
:100480006500C8010197F1F725BAF0926500C8012F
:100490000197F1F787E085BB20936500C8010197BC
:1004A000F1F753CFD5BAB0926500C8010197F1F7C3
:1004B00075BAE0926500C8010197F1F7A5BAF0920C
:1004C0006500C8010197F1F745BA20936500C8019E
:1004D0000197F1F73ACF81E08093610017B887E880
:1004E00086B90E942401BC018091190290911A02E0
:1004F0000E94570880E060E041E020E030E00E9488
:100500006B06EFCFBF92CF92DF92EF92FF920F93E5
:100510001F93DF93CF930F92CDB7DEB77E01089480
:10052000E11CF11CCC24C39454E0B52E45E0D42E3C
:100530000FC0D092170280911202909113020E9474
:10054000ED0780E060E041E020E030E00E946B06D3
:100550008091C3049091C40460E070E0A7010E9400
:10056000A60AFC0100811181809112029091130270
:1005700060E070E0A7010E940C0880910C028823C3
:10058000D1F20A311105ACF6083111051CF4B09214
:100590001702D1CFC0921702CECFFF920F931F93B5
:1005A000DF93CF9300D0CDB7DEB70E94D1008FEF9D
:1005B0008ABB8E010F5F1F4F60E1F62E0E94DF00A5
:1005C0009A8389838091C3049091C404B8010E94E6
:1005D0008C0AF7BA80E060E041E020E030E00E9461
:1005E0006B06ECCFDF93CF930F92CDB7DEB70E94AF
:1005F000D90BF89487E083BF81E087BF82E482BF94
:100600008FEC82B98AE08ABF80E389BF8FB78068A8
:100610008FBF789480E090E00E9478049093C404A7
:100620008093C30480E0BE016F5F7F4F0E949C04F3
:10063000909311028093100280E090E00E94780471
:10064000909316028093150281E090E00E94580575
:1006500090931302809312028BE192E064E170E0C8
:100660000E94EC0490931A02809319028DEC92E0A0
:1006700060E070E042EC52E021E00E9499078BE6D6
:1006800092E060E070E042E453E022E00E949907CB
:1006900082E892E060E070E042EC53E023E00E94E8
:1006A000990780E391E060E070E042EC54E024E0E0
:1006B0000E94990780E791E060E070E042E454E036
:1006C00025E00E9499070E94590B80E090E00F906E
:1006D000CF91DF910895FA01808392931292129242
:1006E00012921292129212921292129212921292EA
:1006F00012921292129212921292129212921292DA
:100700001292129212921292129212926293729317
:10071000129212921292129212921292129280E8F5
:1007200082933197CF01089508950895089508950B
:10073000089508950895089508958091C60481301C
:1007400009F00895809181058F3FD9F38F5F8093E1
:10075000810508958091C604813009F00895F894C8
:100760008091C5048F3F19F08F5F8093C504789402
:1007700008958CEF90E00895FF920F931F93CF930D
:10078000DF93EC018B01F42E3981E32FF0E0E55F7C
:10079000FE4F2081422F50E0FA01ED5FFE4F708145
:1007A000DC01A40FB51F16969C911697E92FF0E077
:1007B000E55FFE4F8081E82FF0E0ED5FFE4F608146
:1007C000220F220F220F280F862F8095892316963D
:1007D0008C93882321F4872F809538233983E22F47
:1007E000F0E0EE0FFF1FE95FF84F0190F081E02D80
:1007F0001386128617821682118700878F2D8095A7
:10080000948589238487882359F480917B05872BDD
:1008100080937B05FA01E458FA4F8081682B60834E
:10082000822FDF91CF911F910F91FF900895CF9369
:10083000DF93EC01A0918205B091830517969C93FC
:100840008E9316971F968C911F97482F50E05096C5
:100850003C915097FA01E458FA4F832F809590818C
:10086000892380838823A9F451962C91922F909507
:1008700080917B05892380937B05FE01E40FF51FA2
:100880008681832B86838981822B8983DF91CF9117
:10089000089551962C91F1CFCF93DF93EC01A09165
:1008A0008205B09183051F968C911F97FE01E80F7A
:1008B000F11D50968C91509780959681892386835F
:1008C000882339F451969C91519790958981892379
:1008D00089831C961C921C9717961C921E92169741
:1008E000DF91CF910895FC0111821682178208953D
:1008F0009C01809181058823D9F4F894E0917E05CC
:10090000F0917F05309731F08481958190937F0538
:1009100080937E057894309749F081E0808313823C
:10092000128235832483118216821782CF010895A3
:10093000E0E0F0E0CF010895CF93DF93982FEB0133
:1009400080918105882309F042C0F894292F30E076
:10095000D901AA0FBB1FA95FB84F8D919C91119728
:10096000892B19F581E090E011969C938E93E0918C
:100970007E05F0917F05309709F1848195819093F0
:100980007F0580937E05789484E08083922F88276A
:100990008F6F93838283158214821182168217824D
:1009A0001882CF01DF91CF910895789488E28883EF
:1009B000E0E0F0E0CF01DF91CF9108951D921C920D
:1009C000789484E08883CF01DF91CF9108958DE8FA
:1009D0008883E0E0F0E0E5CF9C01809181058823E9
:1009E00009F052C0F894E0917E05F0917F053097B0
:1009F00031F08481958190937F0580937E05789472
:100A00003097A9F1F894A0917905B0917A051097E3
:100A100081F18D919C91119790937A05809379053E
:100A2000789413963C932E931297CB01880F991FBD
:100A3000820F931F15969C938E93149717963C9351
:100A40002E93169719963C932E9318971B967C938A
:100A50006E931A971D961C921E921C9782E08083BB
:100A600013821282B583A483118216821782CF016A
:100A7000089580917E0590917F0595838483F093FE
:100A80007F05E0937E057894E0E0F0E0CF010895E3
:100A900089E695E090935C0580935B050E97109234
:100AA0006A051092690590937A05809379050895F7
:100AB0009C01809181058823D9F4F894E0917E050A
:100AC000F0917F05309731F08481958190937F0577
:100AD00080937E057894309749F083E08083338358
:100AE000228315821482118216821782CF01089503
:100AF000E0E0F0E0CF0108951F93CF93DF93182F2C
:100B0000F894C0915705D0915805209709F456C024
:100B10008A819B81909358058093570578947983B7
:100B200068831D871C861B861A86E12FE695E6954D
:100B3000E695EF87F0E0ED5FFE4F8081898BE12F36
:100B4000E770EE87F0E0ED5FFE4F8081888B1F82BB
:100B50001E8219861886CE010E949C03CE010E9437
:100B60009403F894E12FF0E0EE0FFF1FE95FF84FD8
:100B7000D183C083E091CD04F091CE04FB83EA835E
:100B80001D821C82309711F0D583C483D093CE048C
:100B9000C093CD0480917B059989892B80937B0537
:100BA000EF85F0E0E458FA4F80819889892B8083A3
:100BB000789480E0DF91CF911F910895789486E436
:100BC000DF91CF911F910895F8948091C70490917F
:100BD000C804A091C904B091CA040196A11DB11D19
:100BE0008093C7049093C804A093C904B093CA0427
:100BF00078940E949B03E8CFF89480918105882324
:100C000009F03FC08091C5048823D9F5E0917B05A8
:100C1000F0E0E55FFE4F8081E82FF0E0E458FA4F06
:100C2000E081F0E0E55FFE4F982F990F990F990F43
:100C30008081980F9093CB048091CC04981709F190
:100C4000E92FF0E0EE0FFF1FE95FF84F80819181FF
:100C5000909378058093770580914F05909150058A
:100C6000A0915105B09152050196A11DB11D80932F
:100C70004F0590935005A0935105B09352050E94E3
:100C80008B0C789408959C01009721F1F894A09121
:100C90008205B09183051F96EC911F97F0E0E45810
:100CA000FA4F50968C91509780959081892380833C
:100CB000882349F451969C915197909580917B059A
:100CC000892380937B051B963C932E931A977894E7
:100CD0000E94FC0508958F929F92AF92BF92CF928F
:100CE000DF92EF92FF920F931F93CF93DF93882EA3
:100CF000162F942E8823C9F01C3300F58BE3891539
:100D000090F093E0283E3907D8F083E5DF91CF914A
:100D10001F910F91FF90EF90DF90CF90BF90AF9019
:100D20009F908F90089582E5F1CF662329F74423A1
:100D300029F72115310529F784E5E8CF81E5E6CFCC
:100D4000B90180E090E024E630E040E050E00E940D
:100D5000860D6C507E4F8F4F9F4F28EE33E040E062
:100D600050E00E94A50D59016A01612F70E080E0FA
:100D700090E02CE330E040E050E00E94860D7B01E3
:100D80008C01E90CF11C011D111D682D70E080E043
:100D900090E020E13EE040E050E00E94860DE60E4B
:100DA000F71E081F191FC801B70124E630E040E014
:100DB00050E00E94860DA60EB71EC81ED91E7601F1
:100DC00000271127E7018FEF9FEFA0E0B0E0A822F6
:100DD000B922CA22DB22C5010E944306EF2851F046
:100DE00080E090E80E94430680E090E80E9443067D
:100DF0002197B1F780E08ACFDF92EF92FF920F93B5
:100E00001F9380910607882341F488EC90E00E94AC
:100E10004306809106078823C1F3609153057091C2
:100E20005405809155059091560524E630E040E048
:100E300050E00E94A50DC901DA017C018D01F4E6A4
:100E4000DF2E10C0A80197010E94A50D8D2D821BD9
:100E500087FD44C0809359050E94970384E690E083
:100E60000E944306F8948091C7049091C804A09111
:100E7000C904B091CA048093210790932207A093DC
:100E80002307B09324076091C7047091C804809130
:100E9000C9049091CA041092C7041092C804109219
:100EA000C9041092CA047894E114F10401051105F3
:100EB00049F610925905609153057091540580913F
:100EC00055059091560524E630E040E050E00E9440
:100ED000A50DC901DA017C018D01BECF1092590523
:100EE000BBCF82E090E00E944306F8941092C704C2
:100EF0001092C8041092C9041092CA04789484E62F
:100F000090E00E944306F8948091C7049091C80431
:100F1000A091C904B091CA048093530590935405DD
:100F2000A0935505B093560581E080930607789409
:100F30000895AF92BF92CF92DF92EF92FF920F93FC
:100F40001F93CF93DF93FC01122FF894C22FD0E0B0
:100F5000CC0FDD1FC95FD84F88819981892B71F033
:100F6000789418E2812FDF91CF911F910F91FF901C
:100F7000EF90DF90CF90BF90AF90089581E090E028
:100F8000998388837894CF0120E030E00E946B033E
:100F9000BC01812F40E050E020E030E0EE24FF244F
:100FA0008701CC24DD24AA24BB240E947C05182FB1
:100FB000882371F4F89480915A058F5F80935A05C5
:100FC00078948091C604813069F60E94FC05CACFEE
:100FD000F894198218827894C5CFFC01F894818125
:100FE000882379F4828193812FEF8F3F920731F02C
:100FF000019693838283789480E00895789482E3C5
:101000000895CF0160E070E041E00E94BC03789455
:101010000E94FC0580E008950F931F93CF93DF9308
:10102000EC018A0180918105882381F4F8948A81FA
:101030009B81009799F001979B838A837894FA01AA
:101040001082DF91CF911F910F91089582E0FA01F4
:101050008083DF91CF911F910F910895E0918205D8
:10106000F091830584858160848773876287CE01D0
:101070000E94170478940E94FC05F894E091820580
:10108000F0918305848580FD0AC0178216827894CA
:10109000F8011082DF91CF911F910F910895CE0139
:1010A0000E944C0478948AE0F8018083CACFFC0146
:1010B000F8948181882351F5A481B5811C962D91E6
:1010C0003C911D971A968D919C911B972817390773
:1010D00018F078948EE108951696ED91FC9117978B
:1010E000619371931796FC93EE9316972F5F3F4F82
:1010F0001D963C932E931C9714968D919C91159759
:10110000E817F90761F0789480E00895CF0144E092
:101110000E94BC0378940E94FC0580E0089512961A
:101120008D919C91139717969C938E931697EBCF66
:10113000EF92FF920F931F93CF93DF938C017A016D
:1011400080918105882309F05CC0F894F801A4819E
:10115000B5811C968D919C911D97009709F1189669
:10116000ED91FC911997C191D1911996FC93EE9351
:10117000189701971D969C938E931C9714968D91AA
:101180009C911597E817F90799F17894F701108267
:10119000CE01DF91CF911F910F91FF90EF900895B5
:1011A000E0918205F091830584858460848773874C
:1011B0006287C8010E94170478940E94FC05F89485
:1011C000E0918205F0918305C085D1852097F9F0E3
:1011D000118610861486178216827894F701108281
:1011E000CE01DF91CF911F910F91FF90EF90089565
:1011F00012968D919C91139719969C938E931897A4
:10120000C4CF82E0FA018083C0E0D0E0C1CFC80142
:101210000E944C0478948AE0F7018083B9CFCF9381
:10122000DF93EC01809181058823A1F4F8943A8141
:101230004B81A0918205B09183051D968C911D97DD
:10124000841761F0381709F454C0789488E7DF9167
:10125000CF91089585E0DF91CF9108951F96EC918D
:101260001F97F0E0E458FA4F50968C915097809574
:10127000908189238083882349F451969C915197CA
:10128000909580917B05892380937B051D963C93E7
:101290001D97E32FE695E695E6951F96EC931F972D
:1012A000F0E0ED5FFE4F208151962C935197E32F94
:1012B000E7701E96EC931E97F0E0ED5FFE4F908175
:1012C00050969C93509780917B05822B80937B0551
:1012D0001F96EC911F97F0E0E458FA4F8081982B0D
:1012E0009083E32FF0E0EE0FFF1FE95FF84FB1832B
:1012F000A083E42FF0E0EE0FFF1FE95FF84F81E0DD
:1013000090E0918380838981882361F48A819B8125
:101310008F6F9B838A831D821C82789480E0DF918B
:10132000CF910895CE0160E070E040E10E94BC03DF
:10133000E82FF0E08A819B8180708E2B9F2B9B830E
:101340008A83EE0FFF1FE95FF84F808191819D83B3
:101350008C8378940E94FC0580E079CF0F931F93D3
:10136000CF93DF93EC018A01809181058823A1F559
:10137000F8942A813B812F3F09F460C0432FAC8150
:10138000BD811D968C911D97831709F452C0E09181
:101390008205F09183058585821708F467C08485EE
:1013A0008061848773876287CE010E9417047894D6
:1013B0000E94FC05F894E0918205F09183058485F4
:1013C00084FD9EC0178216827894F8011082DF9106
:1013D000CF911F910F91089582E0FA018083DF91F0
:1013E000CF911F910F9108951D963C931D97E32F68
:1013F000E695E695E6951F96EC931F97F0E0ED5F76
:10140000FE4F808151968C935197E32FE7701E9683
:10141000EC931E97F0E0ED5FFE4F808150968C9329
:101420005097E42FF0E0EE0FFF1FE95FF84FB18314
:10143000A083E0918205F0918305B1CFC90180704E
:101440009B838A83E0918205F0918305258530E0B6
:10145000282B392B3B832A83FD83EC837894FA0174
:101460001082DF91CF911F910F9108951F968C915B
:101470001F97E82FF0E0E458FA4F508150969C9166
:101480005097852F892309F4AFCF892F8095852325
:101490008083882349F451969C915197909580912F
:1014A0007B05892380937B051D964C931D97E42F24
:1014B000E695E695E6951F96EC931F97F0E0ED5FB5
:1014C000FE4F208151962C935197E42FE7701E9682
:1014D000EC931E97F0E0ED5FFE4F908150969C9349
:1014E000509780917B05822B80937B051F96EC9112
:1014F0001F97F0E0E458FA4F8081982B908391CFAA
:10150000CE010E944C0478948AE0F8018083DF9138
:10151000CF911F910F910895FC01F8948181882348
:1015200039F484819581892B61F0789484E1089560
:10153000CF0142E00E94BC0378940E94FC0580E049
:10154000089575836483789480E00895EF92FF9204
:101550000F931F93CF93DF938C017A0180918105C4
:101560008823A1F5F894F801C481D581209769F00A
:10157000158214827894FA011082CE01DF91CF9106
:101580001F910F91FF90EF900895E0918205F091E7
:10159000830584858260848773876287C8010E947F
:1015A000170478940E94FC05F894E0918205F0916C
:1015B0008305C085D185209779F011861086148621
:1015C000178216827894F7011082D7CF82E0FA0151
:1015D0008083C0E0D0E0D1CFC8010E944C04789451
:1015E0008AE0F7018083C9CF8091C604813009F079
:1015F0000895F8948091C504882359F08150809310
:10160000C504882321F480918105882321F07894F2
:1016100008957894089578940E94FC0508950E9496
:1016200098038091C604813009F00895A091CD04FB
:10163000B091CE041D968C911D978C30B1F3209102
:101640007B0541E050E01AC051968C915197282BB0
:101650001F96EC911F97F0E0E458FA4F8081509666
:101660009C915097892B808312960D90BC91A02D50
:1016700078941D968C911D978C30C1F0F8941A9631
:101680008D919C911B97009779F301971B969C93E2
:101690008E931A97892B41F71C968C911C9783FF88
:1016A000D3CF1B965C934E931A97DECF20937B0586
:1016B00008958091C60481110895E0917B05F0E0C2
:1016C000E55FFE4FA081EA2FF0E0E458FA4FE08199
:1016D000F0E0E55FFE4FAA0FAA0FAA0F8081A80FC6
:1016E000A093CB04A093CC04B0E0AA0FBB1FA95FCA
:1016F000B84F8D919C919093780580937705909346
:101700008305809382050E94570C08958091C6043A
:10171000813009F00895F89480918105882339F08B
:10172000815080938105882311F0789408958091E9
:10173000C5048823D1F7E0917B05F0E0E55FFE4F1B
:10174000808180938005E82FF0E0E458FA4FE08133
:10175000F0E0E55FFE4F982F990F990F990F808168
:10176000980F9093CB048091CC049817F1F2E92F55
:10177000F0E0EE0FFF1FE95FF84F808191819093B9
:1017800078058093770580914F0590915005A09141
:101790005105B09152050196A11DB11D80934F05D1
:1017A00090935005A0935105B09352050E94EE0C02
:1017B000BCCF0E949903109281051092C50410922B
:1017C0005A051092C60410924F05109250051092BF
:1017D0005105109252051092C7041092C80410923D
:1017E000C9041092CA0410927B0510927C051092D5
:1017F0007D051092CC041092CB04109278051092C3
:10180000770510928305109282051092CE041092F3
:10181000CD04E7E0F7E01192119227E0E132F20700
:10182000D1F78EE296E0FC01709791838083429617
:1018300027E086309207B9F71092F7061092F60665
:101840008CE196E09093580580935705109204061A
:101850008CE096E0909309068093080610920C069F
:1018600008969093110680931006409710921406E4
:10187000109219061092180690937F0580937E05AA
:101880000E94480584EE95E060E070E043E056E099
:101890002CE00E9499078CEF96E060E070E04EE447
:1018A00055E02BE00E9499070E949A0308950E9438
:1018B00096030091C60403950093C604E091770552
:1018C000F0917805C191CDBFD191DEBF0F910FBFCF
:1018D0000F910BBFFF91EF91DF91CF91BF91AF912E
:1018E0009F918F917F916F915F914F913F912F9138
:1018F0001F910F91FF90EF90DF90CF90BF90AF902E
:101900009F908F907F906F905F904F903F902F901F
:101910001F900F9008950F921F922F923F924F9217
:101920005F926F927F928F929F92AF92BF92CF926F
:10193000DF92EF92FF920F931F932F933F934F935A
:101940005F936F937F938F939F93AF93BF93CF9347
:10195000DF93EF93FF930BB70F930FB70F93E091C4
:101960008205F0918305CDB7C193DEB7D1930E9474
:1019700096030091CB040093CC04E0917705F0919D
:101980007805E0938205F0938305C191CDBFD19195
:10199000DEBF0F910FBF0F910BBFFF91EF91DF9152
:1019A000CF91BF91AF919F918F917F916F915F91F7
:1019B0004F913F912F911F910F91FF90EF90DF90EA
:1019C000CF90BF90AF909F908F907F906F905F90DF
:1019D0004F903F902F901F900F9008950E94960374
:1019E0000091CB040093CC04E0917705F091780549
:1019F000E0938205F0938305C191CDBFD191DEBF05
:101A00000F910FBF0F910BBFFF91EF91DF91CF911E
:101A1000BF91AF919F918F917F916F915F914F9106
:101A20003F912F911F910F91FF90EF90DF90CF90FA
:101A3000BF90AF909F908F907F906F905F904F90EE
:101A40003F902F901F900F9008950F921F922F920A
:101A50003F924F925F926F927F928F929F92AF923E
:101A6000BF92CF92DF92EF92FF920F931F932F932B
:101A70003F934F935F936F937F938F939F93AF9316
:101A8000BF93CF93DF93EF93FF930BB70F930FB7F2
:101A900000680F9300918105039500938105013043
:101AA00041F4CDB7DEB7E0918205F0918305C19393
:101AB000D19304E602BF78940E940F0B00000E94AD
:101AC000860B0F910FBF0F910BBFFF91EF91DF912D
:101AD000CF91BF91AF919F918F917F916F915F91C6
:101AE0004F913F912F911F910F91FF90EF90DF90B9
:101AF000CF90BF90AF909F908F907F906F905F90AE
:101B00004F903F902F901F900F900895629FD001AB
:101B1000739FF001829FE00DF11D649FE00DF11DA8
:101B2000929FF00D839FF00D749FF00D659FF00D57
:101B30009927729FB00DE11DF91F639FB00DE11D44
:101B4000F91FBD01CF0111240895A1E21A2EAA1B8D
:101B5000BB1BFD010DC0AA1FBB1FEE1FFF1FA2175D
:101B6000B307E407F50720F0A21BB30BE40BF50B5A
:101B7000661F771F881F991F1A9469F760957095E3
:101B8000809590959B01AC01BD01CF010895F8941B
:021B9000FFCF85
:101B9200112B4201020408102040800000010002C3
:101BA2000001000300010002000100040001000224
:101BB2000001000300010002000100050001000213
:101BC2000001000300010002000100040001000204
:101BD20000010003000100020001000600010002F2
:101BE20000010003000100020001000400010002E4
:101BF20000010003000100020001000500010002D3
:101C020000010003000100020001000400010002C3
:101C120000010003000100020001000700010002B0
:101C220000010003000100020001000400010002A3
:101C32000001000300010002000100050001000292
:101C42000001000300010002000100040001000283
:101C52000001000300010002000100060001000271
:101C62000001000300010002000100040001000263
:101C72000001000300010002000100050001000252
:101C82000001000300010002000100040001000243
:0C1C92000001000300010002000100003E
:00000001FF
